:100000000C94B0000C94CD000C94CD000C94CD0059
:100010000C94CD000C94CD000C94CD000C94CD002C
:100020000C94CD000C94CD000C9408020C94460264
:100030000C94CD000C94CD000C94CD000C94CD000C
:100040000C94CD000C9496010C94CD000C94CD0032
:100050000C94CD000C94CD000C94CD000C94CD00EC
:100060000C94CD000C94CD000C94CD000C94CD00DC
:100070000C94CD000C9481010C94CD000C94CD0017
:100080000C94CD000C94CD000C94CD000C94CD00BC
:100090000C94CD000C94CD000C94CD000C94CD00AC
:1000A0000C94CD000C94CD000C94CD000001000008
:1000B0004301120002000000014300030000FC00A5
:1000C0000401030904E8001202030904E000060326
:1000D000030904D600080803340031003000000092
:1000E00006034D003200000012034A002E002000DB
:1000F0004600690065006E00650000000403090405
:1001000009024300020100C032090400000102029A
:100110000100052400100105240101010424020648
:1001200005240600010705820310004009040100B0
:10013000020A0000000705030240000007058402D0
:100140004000001201000202000010C0167A0400F4
:1001500001010203010001C1120180360181360054
:1001600011241FBECFEFDAE0DEBFCDBF11E0A0E06B
:10017000B1E0E8E1F9E002C005900D92AC30B107C2
:10018000D9F721E0ACE0B1E001C01D92A231B20785
:10019000E1F70E9451010C948A040C9400005798D6
:1001A00022982A9A0895249A259A509A539A089543
:1001B000CF93DF93E1E6F0E080E8808383E0808303
:1001C000ACE7B0E08C918F778C938C9180648C93AA
:1001D000EAE7F0E080818B7F80838081826080838A
:1001E000808181608083CEE7D0E0888180688883C9
:1001F00080818F7D8083CBE7D0E088818062888397
:100200008C918B7F8C938C9182608C938C918E7F60
:100210008C93808188608083808180688083DF9177
:10022000CF910895609100017091010180910201C8
:10023000909103010E94FD037093890060938800F0
:10024000E1E8F0E080818460808380818D7F80831D
:1002500080818160808380818F7E808380818860BF
:100260008083E0E8F0E080818D7F808380818E7FD5
:100270008083EFE6F0E08081826080830895589863
:100280005B982C982D9808957894EAE7F0E08081A7
:10029000806480835B9A2C9A10928500109284006F
:1002A00008956E9A76980E94CF000E94D3000E9413
:1002B000D8000E9412016A9A72980E943F010E941F
:1002C000440180910C0190910D010E94C90380911D
:1002D0000C0190910D01892BA1F3F8942D9A1092A5
:1002E0000D0110920C01589A5B9A2FE784E89EE169
:1002F000215080409040E1F700C000000E943F0183
:10030000E0CF1F920F920FB60F9211248F93EF93AD
:10031000FF93EAE7F0E0808180648083FF91EF91B2
:100320008F910F900FBE0F901F9018951F920F92F4
:100330000FB60F9211248F939F932C98589A5B9825
:1003400081E090E090930D0180930C019F918F913B
:100350000F900FBE0F901F901895CF93DF93909141
:100360001101992309F44CC09FB7F89424E020931D
:10037000E90020910F01222349F02091E80025FD9A
:1003800003C09FBF8FEF41C010920F013091E40076
:10039000375E2091E80025FD24C09FBF9091E400C6
:1003A000931781F090911101992361F1A9EEB0E0CA
:1003B00044E0E8EEF0E0C4EED0E00DC09FBF9881CD
:1003C000931305C081E080930F018FEF1EC09091C1
:1003D00011019923C9F09FB7F8944C93208125FF10
:1003E000EDCF8093F1008091E80085FD03C08AE3A2
:1003F0008093E80085E0809310019FBF80E005C0F6
:100400008FEF03C08FEF01C08FEFDF91CF91089581
:100410001F920F920FB60F9211248F939F93EF9319
:10042000FF93E1EEF0E08081108283FF11C0109213
:10043000E90091E09093EB001092EC0092E1909330
:10044000ED0098E09093F0001092110110920E01CF
:1004500082FF13C080911101882379F080911001EF
:10046000882359F0815080931001811106C084E0E7
:100470008093E9008AE38093E800FF91EF919F91D8
:100480008F910F900FBE0F901F9018951F920F9293
:100490000FB60F9211240F931F932F933F934F93F7
:1004A0005F936F937F938F939F93AF93BF93CF93FC
:1004B000DF93EF93FF931092E9008091E80083FFB0
:1004C0004CC1E1EFF0E0608180812081908130E0DB
:1004D000392B4081908150E0592B7081C08192EF7F
:1004E0009093E800863009F058C004C081E2809300
:1004F000EB003AC166E08CEA90E0FC01A591B49172
:100500002A173B0711F0079623C0FC013296A591EC
:10051000B4914A175B0711F007961AC0FC01349694
:1005200045915491FC0136962491872F90E09C2BA5
:100530008F3F910519F010F08FEF90E0821708F4CB
:10054000282FA8EEB0E070E16EEFC1EFD0E003C05D
:10055000615099F6CBCF8C91982F9570E1F382FD85
:1005600003C1322F213108F0372F332309F4F9C0AA
:10057000FA01832F94919883815031968111FACF9B
:100580008FEF830F90E00196480F591F231B6C9348
:100590002111E1CF3031F9F2E7C0853061F48EEFFF
:1005A0008093E800E8EEF0E0808180FFFDCF2068D6
:1005B0002093E300D9C0893009F035C06111CDC066
:1005C0002093110110920E01109210018EEF809372
:1005D000E80081E025E531E0C9EED0E0ABEEB0E027
:1005E0000CEE10E06DEE70E08883A9014F5F5F4F65
:1005F000F90194919C93992361F0FA014491F801D7
:100600004083F901329694912D5F3F4FFB01908317
:1006100001C09A018F5F853039F7EAEEF0E08EE194
:1006200080831082A1C0883081F4603809F095C0C1
:10063000E8EEF0E0808180FFFDCF80911101809392
:10064000F1008EEF8093E8008FC08132B9F4613AF7
:1006500009F083C0E8EEF0E0808180FFFDCFE4E0A8
:10066000F1E02BE031E0A1EFB0E081918C93E21753
:10067000F307D9F78EEF8093E80076C08032D1F48B
:10068000613209F06AC0E8EEF0E0808182FFFDCFC0
:10069000E4E0F1E02BE031E0A1EFB0E08C91819358
:1006A000E217F307D9F7E8EEF0E08BEF80838EEFE7
:1006B00080835AC0823271F4613209F04EC02093B7
:1006C0000E01E8EEF0E0808180FFFDCF8EEF809399
:1006D000E8004AC081111AC0E8EEF0E0808180FF96
:1006E000FDCF623851F4E9EEF0E040838091EB00F9
:1006F00085FB882780F9108201C080E0E1EFF0E0FF
:10070000808310828EEF8093E8002EC0982F9D7F0B
:10071000913019F5623009F5232BF9F44F779FEFEB
:10072000940F9430D0F49EEF9093E8004093E9004A
:10073000833021F481E28093EB0016C089E180933D
:10074000EB0081E090E002C0880F991F4A95E2F724
:10075000EAEEF0E08083108207C081E28093EB0034
:1007600003C06C932111F7CEFF91EF91DF91CF91F0
:10077000BF91AF919F918F917F916F915F914F91B9
:100780003F912F911F910F910F900FBE0F901F90CF
:100790001895EF92FF920F931F93CF93DF93CDB7EE
:1007A000DEB727970FB6F894DEBF0FBECDBF8E0120
:1007B0000F5F1F4F27E0F80111922A95E9F74AE0F1
:1007C000B8010E9455047E01F8E0EF0EF11CF8011B
:1007D00081918F0181110E94AD010E151F05B9F79E
:1007E00027960FB6F894DEBF0FBECDBFDF91CF9135
:1007F0001F910F91FF90EF9008950E94340488F0AC
:100800009F5798F0B92F9927B751B0F0E1F0660FD4
:10081000771F881F991F1AF0BA95C9F714C0B13015
:1008200091F00E944E04B1E008950C944E04672F9D
:10083000782F8827B85F39F0B93FCCF38695779544
:100840006795B395D9F73EF490958095709561952D
:100850007F4F8F4F9F4F089557FD9058440F551F5E
:1008600059F05F3F71F04795880F97FB991F61F032
:100870009F3F79F087950895121613061406551FA9
:10088000F2CF4695F1DF08C0161617061806991F15
:10089000F1CF86957105610508940895E894BB270A
:1008A00066277727CB0197F90895BB274A3031F4A3
:1008B000992322F4BDE2909581959F4F0C94610499
:1008C000BB27FB015527AA27880F991FAA1FA4172A
:1008D00010F0A41B83955051B9F7A05DAA3308F01E
:1008E000A95DA193009779F7B111B1931192CB0152
:1008F0000C947A04DC01FC01672F71917723E1F7F6
:10090000329704C07C916D9370836291AE17BF07DC
:08091000C8F30895F894FFCF2D
:0C09180000D6274700E1000000000800A6
:00000001FF
